:020000040800F2
:1000000000500020550B0008BD0A0008C30A000874
:10001000C90A0008CF0A0008D50A0008000000003D
:10002000000000000000000000000000DB0A0008E3
:10003000E70A000800000000F30A0008FF0A0008B1
:100040009D0B00089D0B00089D0B00089D0B0008F0
:100050009D0B00089D0B00089D0B00089D0B0008E0
:100060009D0B00089D0B00089D0B00089D0B0008D0
:100070009D0B00089D0B00089D0B00089D0B0008C0
:100080009D0B00089D0B00089D0B00089D0B0008B0
:100090000D0B0008210B00089D0B00089D0B0008AC
:1000A0009D0B0008350B00089D0B00089D0B0008F8
:1000B0009D0B00089D0B00089D0B00089D0B000880
:1000C0009D0B00089D0B00089D0B00089D0B000870
:1000D0009D0B00089D0B00089D0B00089D0B000860
:1000E0009D0B00089D0B00089D0B00080000000000
:1000F0000000000000000000000000000000000000
:0C01000000000000000000005FF808F1A3
:10010C0010B5054C237833B9044B13B10448AFF345
:10011C0000800123237010BD180000200000000097
:10012C00F032000808B5034B1BB103490348AFF389
:10013C00008008BD000000001C000020F032000808
:10014C0080B582B000AF8A4B1B68163B102B00F2B7
:10015C00FE8001A252F823F0B50100085B030008F1
:10016C005B0300085B0300085B0300085B030008EB
:10017C005B0300085B0300085B0300085B030008DB
:10018C005B0300085B030008A9010008E9010008F3
:10019C005B0300085B0300082D03000800F06EF9F8
:1001AC00744802F0E9FCD5E0724802F0E5FC2C2121
:1001BC00142000F08FF9704B00221A616E4B27222D
:1001CC001A606E4B01221A706B4B27221A606C4B13
:1001DC006C4A69496C4800F047FFBBE0674B1B78E1
:1001EC00002B65D0694BDB78042B0CD1674B1B794A
:1001FC001B021AB2654B5B791BB213431BB29AB24A
:10020C00634B1A8005E0614BDB78012B01D100F0C8
:10021C0035F95A4B00221A705C4B1A785D4B1A70E8
:10022C005D4B1B781A46162302FB03F3574A1178D1
:10023C005A4AD154564B1B881B0A9AB2564B1B7800
:10024C001946162301FB03F30133D1B2534AD1549F
:10025C004F4B1A88504B1B781946162301FB03F39E
:10026C000233D1B24D4AD1540023FB7111E0FB791A
:10027C005A1C494B1B781946162301FB03F3D91C56
:10028C00FB790B444149895C444AD154FB790133D5
:10029C00FB71FA79364B1B699A4205D23D4B1B78A0
:1002AC009A1CFB799A42E2DA3D4B08221A7051E013
:1002BC000023BB7100237B7116E07A79364B1B78D7
:1002CC001946162301FB03F3023335490978194407
:1002DC007B790B442D49895C304AD154BB7901336D
:1002EC00BB717B7901337B717A79214B1B699A4203
:1002FC000ED2284B1B787A799A4209D2254B1B785F
:10030C00DA1C274B1B7819467B790B449A42D4DABA
:10031C00234B1A78BB791344DAB2214B1A7019E0CB
:10032C00164B01221A701C4B1B780133DAB21A4B94
:10033C001A70194B1B78042B0BD1184800F0F2F8EB
:10034C00174B00221A70144B00221A7001E000BFE8
:10035C0000E000BF084B29221A60094B094A0649E4
:10036C00094800F081FE00BF0837BD4680BD00BFC4
:10037C00BC0000205C000020A4000020E000002055
:10038C00080000200000002034000020D8000020CD
:10039C00E2000020E4000020E5000020E80000203E
:1003AC004001002080B582B000AF7860054B064A52
:1003BC000021786800F027FFFFF7C2FE00BF083766
:1003CC00BD4680BDD8000020BC00002080B487B0A2
:1003DC0000AF78604FF000637B614FF480633B614A
:1003EC007B683A6902FB03F37A691344FB60FB6890
:1003FC0018461C37BD4680BC7047000080B582B0E3
:10040C0000AF78607B681B680A4A934208D10A4B9C
:10041C001B78022B04D1094802F0AEFB00F02EF839
:10042C00054B1B780133DAB2034B1A7000BF083747
:10043C00BD4680BD002C0140410100205C00002025
:10044C0080B400AF0A4B00221A60094B00229A605C
:10045C00084B1B68084AA2FB03239B09044A013B77
:10046C005360034B07221A6000BFBD4680BC704727
:10047C0010E000E00C000020D34D621080B582B07B
:10048C0000AF0E4802F078FB02210D4801F001F894
:10049C000C4B1A680C4B1340B3F1005F09D10B4B9A
:1004AC001B687B600A4B074A9A60FFF7C9FF7B68A1
:1004BC00984700BF0837BD4680BD00BF5C000020D8
:1004CC0034000020005000080000FE2F04500008EB
:1004DC0000ED00E080B584B000AF7860396001F0C9
:1004EC009FFB0F4B00221A600D4A3B68D360786863
:1004FC00FFF76CFF03460A4A936001F091FB07F18A
:10050C000C031946064801F073FC41F2883001F0E7
:10051C00D9FB01F0ABFB00BF1037BD4680BD00BF5F
:10052C0044010020B0B58AB000AF7860002387F892
:10053C00273084E097F82730162202FB03F31A4683
:10054C007B6813441B78FB7797F82730162202FB45
:10055C0003F301331A467B6813441B781B021AB24F
:10056C0097F82730162101FB03F3023319467B68F9
:10057C000B441B781BB213431BB2BB8397F8273079
:10058C00162202FB03F303331A467B6813441B78D1
:10059C001B021AB297F82730162101FB03F3043320
:1005AC0019467B680B441B781BB213431BB27B832D
:1005BC0097F82730162202FB03F305331A467B68A3
:1005CC0013441B787B7697F82730162202FB03F333
:1005DC0006331A467B6813447B61FB7F3B617B7E51
:1005EC00002B23D172B600BF01F01AFBBB8B1A048F
:1005FC007B8B1343FB6000233B6213E07A693B6AFD
:10060C0013441B68BB60FA683B6AD118BB680022B4
:10061C001C46154622462B46022001F091FA3B6AF5
:10062C0004333B623A6A3B699A42E7D301F01EFB02
:10063C0062B600BF97F82730013387F8273097F858
:10064C002730032B7FF676AF00BF00BF2837BD469F
:10065C00B0BD000080B500AF00F09CFA00F038F897
:10066C0000F020F900F07AF800F0CAF8134B0122E0
:10067C001A61124B00225A60104B00229A600F4BE9
:10068C000022DA600D4B00221A750C4B01221A6005
:10069C0002210B4800F0D8FE094800F0A1FC074BE2
:1006AC0027221A60074B084A0449054800F0DCFC75
:1006BC0000F0A6F8054802F00DFAFEE7A4000020B1
:1006CC003400002008000020000000205C00002006
:1006DC0080B590B000AF07F118032822002118460E
:1006EC0002F0D4FD3B1D00221A605A609A60DA6059
:1006FC001A610123BB614FF48033FB6100233B6221
:10070C000123BB6202237B634FF48033BB634FF442
:10071C00E013FB6307F11803184601F0ADFD034627
:10072C00002B01D000F00AF90F237B600223BB6081
:10073C000023FB604FF480633B6100237B613B1D16
:10074C000221184602F01AF80346002B01D000F0E3
:10075C00F5F800BF4037BD4680BD000080B58AB0BB
:10076C0000AF254B254A1A60234B12225A60224BAC
:10077C0000229A60204B0022DA601F4B4FF480322B
:10078C001A611D4B4FF480125A611B4B00221A76D2
:10079C00194B00225A76184B00229A76164B0022DF
:1007AC00DA76154B00221A77134B00225A7712482F
:1007BC0000F052FA0346002B01D000F0BFF80123E1
:1007CC003B6200237B6100233B6100233B600023E1
:1007DC007B600023BB600023FB600023BB61012313
:1007EC00FB6102237B623B461946034800F02FFB5A
:1007FC0000BF2837BD4680BD340000200064004097
:10080C0080B586B000AF07F1080300221A605A6069
:10081C009A60DA603B4600221A605A601F4B204AED
:10082C001A601E4B4FF6FF725A601C4B00229A60E6
:10083C001A4B4FF6FF72DA60184B4FF400721A61C4
:10084C00164B00225A61154B00229A61134802F094
:10085C00F1F80346002B01D000F070F84FF48053F0
:10086C00BB6007F1080319460C4802F0BBFA0346BB
:10087C00002B01D000F062F800233B6000237B606A
:10088C003B461946054802F091FC0346002B01D06B
:10089C0000F054F800BF1837BD4680BD5C00002046
:1008AC00002C014080B588B000AF07F11003002286
:1008BC001A605A609A60DA601E4B9B691D4A43F0BD
:1008CC00100393611B4B9B6903F01003FB60FB68E7
:1008DC00184B9B69174A43F020039361154B9B6996
:1008EC0003F02003BB60BB68124B9B69114A43F0B9
:1008FC00040393610F4B9B6903F004037B607B68DB
:10090C0001224FF400510C4801F09EFC4FF40053AF
:10091C003B6101237B610023BB610223FB6107F177
:10092C0010031946044801F00BFB00BF2037BD46ED
:10093C0080BD00BF001002400010014080B400AF29
:10094C0072B600BFFEE7000080B485B000AF154B57
:10095C009B69144A43F001039361124B9B6903F0AA
:10096C000103BB60BB680F4BDB690E4A43F080533D
:10097C00D3610C4BDB6903F080537B607B680A4BC3
:10098C005B68FB60FB6823F0E063FB60FB6843F093
:10099C000073FB60044AFB68536000BF1437BD460C
:1009AC0080BC7047001002400000014080B588B048
:1009BC0000AF786007F1100300221A605A609A6049
:1009CC00DA607B681B68244A934241D1234BDB6974
:1009DC00224A43F00073D361204BDB6903F00073B0
:1009EC00FB60FB681D4B9B691C4A43F0040393613D
:1009FC001A4B9B6903F00403BB60BB684FF40063A4
:100A0C003B6100237B610023BB6107F11003194696
:100A1C00134801F095FA4FF480533B6102237B613C
:100A2C000323FB6107F1100319460D4801F088FA06
:100A3C0000220021142001F04CF8142001F065F87C
:100A4C0000220021152001F044F8152001F05DF87A
:100A5C0000BF2037BD4680BD00640040001002403E
:100A6C000008014080B584B000AF78607B681B68DB
:100A7C000D4A934213D10D4B9B690C4A43F400630E
:100A8C0093610A4B9B6903F40063FB60FB680022D3
:100A9C000021192001F01DF8192001F036F800BFD3
:100AAC001037BD4680BD00BF002C01400010024035
:100ABC0080B400AFFEE780B400AFFEE780B400AFB7
:100ACC00FEE780B400AFFEE780B400AFFEE780B471
:100ADC0000AF00BFBD4680BC704780B400AF00BF04
:100AEC00BD4680BC704780B400AF00BFBD4680BC23
:100AFC00704780B500AF00F093F800BF80BD0000D8
:100B0C0080B500AF024800F0EAFC00BF80BD00BF1A
:100B1C003400002080B500AF024800F0E0FC00BFBC
:100B2C0080BD00BF3400002080B500AF024802F049
:100B3C0051F800BF80BD00BF5C00002080B400AF46
:100B4C0000BFBD4680BC7047FFF7F8FF0B480C494F
:100B5C000C4A002302E0D458C4500433C4188C420D
:100B6C00F9D3094A094C002301E013600432A24274
:100B7C00FBD302F093FBFFF76DFD704700000020E4
:100B8C0018000020343300081800002078010020E1
:100B9C00FEE7000080B500AF084B1B68074A43F026
:100BAC0010031360032000F089FF0F2000F008F8F9
:100BBC00FFF7CAFE0023184680BD00BF002002408C
:100BCC0080B582B000AF7860124B1A68124B1B785C
:100BDC0019464FF47A73B3FBF1F3B2FBF3F31846F7
:100BEC0000F0A1FF0346002B01D001230EE07B682F
:100BFC000F2B0AD8002279684FF0FF3000F069FF04
:100C0C00064A7B681360002300E00123184608376E
:100C1C00BD4680BD0C0000201400002010000020F8
:100C2C0080B400AF054B1B781A46054B1B68134468
:100C3C00034A136000BFBD4680BC704714000020FF
:100C4C005401002080B400AF024B1B681846BD460F
:100C5C0080BC70475401002080B584B000AF786030
:100C6C007B68002B01D10123EDE07B6893F82030E9
:100C7C00DBB2002B02D17868FFF798FE7B681B680B
:100C8C001A687B681B6842F001021A60FFF7DAFFF2
:100C9C00F86012E0FFF7D6FF0246FB68D31A0A2B66
:100CAC000BD97B685B6A43F400327B685A627B68C1
:100CBC00052283F820200123C5E07B681B685B6854
:100CCC0003F00103002BE5D07B681B681A687B6876
:100CDC001B6822F002021A60FFF7B4FFF86012E002
:100CEC00FFF7B0FF0246FB68D31A0A2B0BD97B68BF
:100CFC005B6A43F400327B685A627B68052283F896
:100D0C00202001239FE07B681B685B6803F00203D3
:100D1C00002BE5D17B681B7E012B08D17B681B68FF
:100D2C001A687B681B6842F080021A6007E07B68D7
:100D3C001B681A687B681B6822F080021A607B684B
:100D4C005B7E012B08D17B681B681A687B681B686B
:100D5C0042F040021A6007E07B681B681A687B68E7
:100D6C001B6822F040021A607B689B7E012B08D125
:100D7C007B681B681A687B681B6842F020021A604B
:100D8C0007E07B681B681A687B681B6822F02002EE
:100D9C001A607B68DB7E012B08D17B681B681A68A4
:100DAC007B681B6822F010021A6007E07B681B68E6
:100DBC001A687B681B6842F010021A607B681B7F04
:100DCC00012B08D17B681B681A687B681B6842F092
:100DDC0008021A6007E07B681B681A687B681B684E
:100DEC0022F008021A607B685B7F012B08D17B68BC
:100DFC001B681A687B681B6842F004021A6007E0E3
:100E0C007B681B681A687B681B6822F004021A60F6
:100E1C007B689A687B68DB681A437B681B691A439A
:100E2C007B685B6942EA03017B685B685A1E7B68DE
:100E3C001B680A43DA617B6800225A627B680122D4
:100E4C0083F82020002318461037BD4680BD80B49F
:100E5C0087B000AF786039607B681B687B617B680A
:100E6C0093F82030FB74FB7C012B03D0FB7C022B12
:100E7C0040F0AA807B69D3F8003243F001027B6911
:100E8C00C3F800223B685B6903F01F03012202FADE
:100E9C0003F3FB607B69D3F81C22FB68DB431A402D
:100EAC007B69C3F81C223B68DB69002B23D17B696F
:100EBC00D3F80C22FB68DB431A407B69C3F80C2285
:100ECC003B68DB6819043B685B689BB23A68526903
:100EDC0019437B69483243F832103B689B6819040C
:100EEC003B681B689AB23B685B690A437969483373
:100EFC00DB000B445A603B68DB69012B22D17B6918
:100F0C00D3F80C22FB681A437B69C3F80C223B68AC
:100F1C001B6819043B685B689BB23A6852691943B9
:100F2C007B69483243F832103B689B6819043B6874
:100F3C00DB689AB23B685B690A4379694833DB002A
:100F4C000B445A603B689B69002B09D17B69D3F831
:100F5C000422FB68DB431A407B69C3F8042207E0D8
:100F6C007B69D3F80422FB681A437B69C3F804221B
:100F7C003B681B69002B09D17B69D3F81422FB68F1
:100F8C00DB431A407B69C3F8142207E07B69D3F872
:100F9C001422FB681A437B69C3F814223B681B6A52
:100FAC00012B07D17B69D3F81C22FB681A437B69A0
:100FBC00C3F81C227B69D3F8003223F001027B6951
:100FCC00C3F80022002306E07B685B6A43F48022AE
:100FDC007B685A62012318461C37BD4680BC70479B
:100FEC0080B584B000AF78607B6893F82030DBB2BA
:100FFC00012B2ED17B68022283F820207B681B6892
:10100C001A687B681B6822F001021A60FFF71AFE4F
:10101C00F86012E0FFF716FE0246FB68D31A0A2BA3
:10102C000BD97B685B6A43F400327B685A627B683D
:10103C00052283F82020012312E07B681B685B6883
:10104C0003F00103002BE5D17B6800225A620023D8
:10105C0006E07B685B6A43F400227B685A620123DA
:10106C0018461037BD4680BD80B489B000AFF8601B
:10107C00B9607A603B60FB6893F82030FB77FB68C3
:10108C001B689B68BB61FB7F012B03D0FB7F022B92
:10109C0040F0AD80BB6903F08063002B0AD1BB69C3
:1010AC0003F00063002B05D1BB6903F08053002BC8
:1010BC0000F09580BB691B0E03F003037B610122DA
:1010CC007B699A403B681A60BB689B68002B0DD10A
:1010DC00BB681B685A05BB68DB68F96809681A436A
:1010EC007B6918331B010B441A600FE0BB685B680B
:1010FC00DA00BB689B681A43BB68DB68F96809684F
:10110C001A437B6918331B010B441A60FB6819687E
:10111C00BB681A697B6918331B010B4404331A60D2
:10112C00BB681B7D012B11D1FB681A687B691833D6
:10113C001B01134404331B68FA68116843F4807272
:10114C007B6918331B010B4404331A607B6807332B
:10115C001B781A067B6806331B781B041A437B68C2
:10116C0005331B781B0213437A680432127810463D
:10117C00FA68116843EA00027B691B010B4403F512
:10118C00C6731A607B6803331B781A067B680233BC
:10119C001B781B041A437B6801331B781B02134317
:1011AC007A6812781046FA68116843EA00027B6983
:1011BC001B010B4403F5C4731A60FB681A687B6946
:1011CC0018331B0113441B68FA68116843F00102C1
:1011DC007B6918331B010B441A6000230EE0FB687B
:1011EC005B6A43F40012FB685A62012306E0FB6859
:1011FC005B6A43F48022FB685A6201231846243749
:10120C00BD4680BC704780B487B000AFF860B96051
:10121C007A603B60FB6893F82030FB75FB7D012BFB
:10122C0003D0FB7D022B40F00381BB68002B0ED159
:10123C00FB681B68DB6803F00303002B16D1FB680B
:10124C005B6A43F40012FB685A620123F7E0FB6807
:10125C001B681B6903F00303002B07D1FB685B6A57
:10126C0043F40012FB685A620123E8E0FB681A6839
:10127C00BB681B331B0113441B6803F004027B681F
:10128C009A607B689B68002B0CD1FB681A68BB6862
:10129C001B331B0113441B685B0DC3F30A027B68F1
:1012AC001A600BE0FB681A68BB681B331B01134404
:1012BC001B68DB0823F060427B685A60FB681A6885
:1012CC00BB681B331B0113441B6803F002027B68D1
:1012DC00DA60FB681A68BB681B331B0113440433C8
:1012EC001B6803F00803002B03D07B6808221A61EB
:1012FC000BE0FB681A68BB681B331B0113440433F7
:10130C001B6803F00F027B681A61FB681A68BB68E4
:10131C001B331B01134404331B681B0ADAB27B68B2
:10132C009A61FB681A68BB681B331B0113440433B6
:10133C001B681B0C9AB27B685A61FB681A68BB6805
:10134C001B01134403F5DC731B68DAB23B681A709B
:10135C00FB681A68BB681B01134403F5DC731B683C
:10136C001A0A3B680133D2B21A70FB681A68BB6860
:10137C001B01134403F5DC731B681A0C3B68023326
:10138C00D2B21A70FB681A68BB681B01134403F5D0
:10139C00DC731B681A0E3B680333D2B21A70FB68FD
:1013AC001A68BB681B01134403F5DE731A683B68AB
:1013BC000433D2B21A70FB681A68BB681B01134461
:1013CC0003F5DE731B681A0A3B680533D2B21A7038
:1013DC00FB681A68BB681B01134403F5DE731B68BA
:1013EC001A0C3B680633D2B21A70FB681A68BB68D9
:1013FC001B01134403F5DE731B681A0E3B6807339D
:10140C00D2B21A70BB68002B08D1FB681B68DA6873
:10141C00FB681B6842F02002DA6007E0FB681B687F
:10142C001A69FB681B6842F020021A61002306E06F
:10143C00FB685B6A43F48022FB685A6201231846FE
:10144C001C37BD4680BC704780B485B000AF786057
:10145C0039607B6893F82030FB73FB7B012B02D047
:10146C00FB7B022B09D17B681B6859697B681B6865
:10147C003A680A435A61002306E07B685B6A43F4CE
:10148C0080227B685A62012318461437BD4680BC03
:10149C00704780B485B000AF786039607B6893F892
:1014AC002030FB73FB7B012B02D0FB7B022B0AD180
:1014BC007B681B6859693B68DA437B681B680A4088
:1014CC005A61002306E07B685B6A43F480227B68E8
:1014DC005A62012318461437BD4680BC704780B54C
:1014EC008AB000AF786000237B627B681B685B6905
:1014FC003B627B681B685B68FB617B681B689B6855
:10150C00BB617B681B68DB687B617B681B681B6944
:10151C003B617B681B689B69FB603B6A03F00103C2
:10152C00002B7CD0BB6903F00103002B23D07B681C
:10153C001B6801229A60BB6903F00203002B03D0E5
:10154C00786800F083F916E0BB6903F00403002B04
:10155C0004D07B6A43F400637B620CE0BB6903F04C
:10156C000803002B04D07B6A43F480537B6202E0B7
:10157C00786800F086F9BB6903F48073002B24D0E3
:10158C007B681B684FF480729A60BB6903F400732C
:10159C00002B03D0786800F062F916E0BB6903F405
:1015AC008063002B04D07B6A43F400537B620CE015
:1015BC00BB6903F40063002B04D07B6A43F48043C3
:1015CC007B6202E0786800F065F9BB6903F4803354
:1015DC00002B24D07B681B684FF480329A60BB6967
:1015EC0003F40033002B03D0786800F041F916E0C7
:1015FC00BB6903F48023002B04D07B6A43F40043C3
:10160C007B620CE0BB6903F40023002B04D07B6AE3
:10161C0043F480337B6202E0786800F044F93B6A63
:10162C0003F00803002B0CD07B6903F01003002B94
:10163C0007D07B6A43F400737B627B681B681022C3
:10164C00DA603B6A03F00403002B0BD07B6903F0D8
:10165C000803002B06D07B681B680822DA607868C8
:10166C0000F02AF93B6A03F00203002B09D07B68D7
:10167C001B68DB6803F00303002B02D07868FEF7CD
:10168C0091FE3B6A03F04003002B0CD03B6903F046
:10169C001003002B07D07B6A43F480637B627B686A
:1016AC001B6810221A613B6A03F02003002B0BD03D
:1016BC003B6903F00803002B06D07B681B680822EB
:1016CC001A61786800F00AF93B6A03F01003002BEA
:1016DC0009D07B681B681B6903F00303002B02D045
:1016EC00786800F0F2F83B6A03F40033002B0BD05F
:1016FC00FB6903F01003002B06D07B681B681022DB
:10170C005A60786800F0F3F83B6A03F48033002BDE
:10171C000BD0FB6903F00803002B06D07B681B6819
:10172C0008225A60786800F0EBF83B6A03F4004337
:10173C00002B7BD0FB6903F00403002B72D03B6AB7
:10174C0003F48073002B08D0FB6803F00103002B1B
:10175C0003D07B6A43F001037B623B6A03F40073A2
:10176C00002B08D0FB6803F00203002B03D07B6A2C
:10177C0043F002037B623B6A03F48063002B08D0C6
:10178C00FB6803F00403002B03D07B6A43F00403D3
:10179C007B623B6A03F40063002B43D0FB6803F0CD
:1017AC007003002B3ED0FB6803F07003602B2BD032
:1017BC00602B2ED8502B22D0502B2AD8402B19D04E
:1017CC00402B26D8302B10D0302B22D8102B02D007
:1017DC00202B05D01DE07B6A43F008037B6219E0E7
:1017EC007B6A43F010037B6214E07B6A43F02003B6
:1017FC007B620FE07B6A43F040037B620AE07B6A0A
:10180C0043F080037B6205E07B6A43F480737B6268
:10181C0000E000BF7B681B689A697B681B6822F03C
:10182C0070029A617B681B6804225A607B6A002BE9
:10183C0008D07B685A6A7B6A1A437B685A6278685C
:10184C0000F067F800BF2837BD4680BD80B483B078
:10185C0000AF786000BF0C37BD4680BC704780B4C9
:10186C0083B000AF786000BF0C37BD4680BC7047BA
:10187C0080B483B000AF786000BF0C37BD4680BC2D
:10188C00704780B483B000AF786000BF0C37BD46A2
:10189C0080BC704780B483B000AF786000BF0C3759
:1018AC00BD4680BC704780B483B000AF786000BF89
:1018BC000C37BD4680BC704780B483B000AF7860F5
:1018CC0000BF0C37BD4680BC704780B483B000AFFE
:1018DC00786000BF0C37BD4680BC704780B483B0C5
:1018EC0000AF786000BF0C37BD4680BC704780B439
:1018FC0083B000AF786000BF0C37BD4680BC70472A
:10190C0080B483B000AF786000BF0C37BD4680BC9C
:10191C00704780B483B000AF786000BF0C37BD4611
:10192C0080BC704780B485B000AF78607B6803F0F2
:10193C000703FB600C4BDB68BB60BA684FF6FF0318
:10194C001340BB60FB681A02BB68134343F0BF63D0
:10195C0043F40033BB60044ABB68D36000BF143748
:10196C00BD4680BC704700BF00ED00E080B400AF06
:10197C00044BDB681B0A03F007031846BD4680BC0A
:10198C00704700BF00ED00E080B483B000AF0346A9
:10199C00FB7197F90730002B0BDBFB7903F01F026F
:1019AC00064997F907305B09012000FA02F241F869
:1019BC00232000BF0C37BD4680BC704700E100E01F
:1019CC0080B483B000AF03463960FB7197F90730E0
:1019DC00002B0ADB3B68DAB20C4997F9073012018D
:1019EC00D2B20B4483F800230AE03B68DAB2084910
:1019FC00FB7903F00F03043B1201D2B20B441A76AD
:101A0C0000BF0C37BD4680BC704700BF00E100E052
:101A1C0000ED00E080B489B000AFF860B9607A6086
:101A2C00FB6803F00703FB61FB69C3F10703042B9D
:101A3C0028BF0423BB61FB690433062B02D9FB6965
:101A4C00033B00E000237B614FF0FF32BB6902FADD
:101A5C0003F3DA43BB681A407B699A404FF0FF31BD
:101A6C007B6901FA03F3D9437B680B401343184697
:101A7C002437BD4680BC704780B582B000AF78601B
:101A8C007B68013BB3F1807F01D301230FE00A4A4D
:101A9C007B68013B53600F214FF0FF30FFF790FF45
:101AAC00054B00229A60044B07221A60002318464B
:101ABC000837BD4680BD00BF10E000E080B582B0A5
:101ACC0000AF78607868FFF72DFF00BF0837BD4680
:101ADC0080BD80B586B000AF0346B9607A60FB73F9
:101AEC0000237B61FFF742FF78617A68B9687869F7
:101AFC00FFF790FF024697F90F3011461846FFF793
:101B0C005FFF00BF1837BD4680BD80B582B000AF07
:101B1C000346FB7197F907301846FFF735FF00BFF6
:101B2C000837BD4680BD80B582B000AF786078685C
:101B3C00FFF7A2FF034618460837BD4680BD0000DC
:101B4C00F0B587B000AFF860B960C7E90023012396
:101B5C00FB750023BB7500237B752F4B1B7E012B64
:101B6C0001D1022354E02C4B01221A764CF2503056
:101B7C0000F0A8F80346FB75FB7D002B44D1FB68F5
:101B8C00012B02D101237B7507E0FB68022B02D1EC
:101B9C0002237B7501E004237B750023BB752DE0CC
:101BAC00BB7D5A00BB6802EB030CBB7D1901D7E966
:101BBC000023C1F12006A1F1200022FA01F403FA5E
:101BCC0006F6344323FA00F0044323FA01F5A3B2DA
:101BDC001946604600F05AF84CF2503000F072F89A
:101BEC000346FB750D4B1B690C4A23F00103136173
:101BFC00FB7D002B07D1BB7D0133BB75BA7D7B7D93
:101C0C009A42CDD300E000BF034B00221A76FB7D35
:101C1C0018461C37BD46F0BD58010020002002407C
:101C2C0080B483B000AF0023FB710D4B1B6903F034
:101C3C008003002B0DD00A4B0A4A5A60084B0A4A03
:101C4C005A60074B1B6903F08003002B01D0012362
:101C5C00FB71FB7918460C37BD4680BC704700BF42
:101C6C000020024023016745AB89EFCD80B400AF63
:101C7C00054B1B69044A43F080031361002318468B
:101C8C00BD4680BC704700BF0020024080B483B0CA
:101C9C0000AF78600B467B80084B0022DA61084B62
:101CAC001B69074A43F0010313617B687A881A8029
:101CBC0000BF0C37BD4680BC704700BF58010020E8
:101CCC000020024080B584B000AF7860FEF7BAFF08
:101CDC00F86010E07B68B3F1FF3F0CD07B68002B01
:101CEC0007D0FEF7AFFF0246FB68D31A7A689A4218
:101CFC0001D2032325E0154BDB6803F00103002B15
:101D0C00E8D1124BDB6803F02003002B02D00F4B01
:101D1C002022DA600D4BDB6803F01003002B0BD193
:101D2C000A4BDB6903F00103002B05D1074BDB6881
:101D3C0003F00403002B03D000F00AF8012300E0A9
:101D4C00002318461037BD4680BD00BF002002405E
:101D5C0080B483B000AF00237B60234BDB6803F0BF
:101D6C001003002B09D0214BDB6943F002031F4AFF
:101D7C00D3617B6843F010037B601B4BDB6803F083
:101D8C000403002B09D0194BDB6943F00103174AFC
:101D9C00D3617B6843F004037B60134BDB6903F076
:101DAC000103002B0BD0114BDB6943F004030F4AEA
:101DBC00D3610D4BDB690C4A23F00103D3617B68C3
:101DCC0040F20112934206D1074BDB69064A23F01D
:101DDC000103D36102E0044A7B68D36000BF0C3777
:101DEC00BD4680BC704700BF002002405801002057
:101DFC0080B584B000AF786039600123FB73002399
:101E0C00BB602F4B1B7E012B01D1022353E02C4BCB
:101E1C0001221A767B681B68022B16D14CF25030CB
:101E2C00FFF750FF0346002B41D1012000F04CF886
:101E3C004CF25030FFF746FF0346FB73214B1B69F6
:101E4C00204A23F00403136131E04CF25030FFF7C9
:101E5C0039FF0346002B2AD13B684FF0FF321A6042
:101E6C007B689B68BB6019E0B86800F049F84CF2DD
:101E7C005030FFF727FF0346FB73124B1B69114AC7
:101E8C0023F002031361FB7B002B03D03B68BA6881
:101E9C001A600CE0BB6803F58063BB607B68DB6891
:101EAC009A027B689B681344BA689A42DCD3044B51
:101EBC0000221A76FB7B18461037BD4680BD00BF4A
:101ECC00580100200020024080B483B000AF78603D
:101EDC00094B0022DA61094B1B69084A43F00403E1
:101EEC001361064B1B69054A43F04003136100BFA5
:101EFC000C37BD4680BC70475801002000200240C2
:101F0C0080B483B000AF78600B4B0022DA610B4BCE
:101F1C001B690A4A43F002031361084A7B68536148
:101F2C00064B1B69054A43F04003136100BF0C3795
:101F3C00BD4680BC704700BF580100200020024005
:101F4C0080B48BB000AF7860396000237B620023D3
:101F5C003B6269E101227B6A02FA03F3FB613B6895
:101F6C001B68FA691340BB61BA69FB699A4240F07D
:101F7C0058813B685B689A4A93425ED0984A934278
:101F8C0075D8984A934258D0964A93426FD8964A3D
:101F9C00934252D0944A934269D8944A93424CD07B
:101FAC00924A934263D8924A934246D0904A9342C3
:101FBC005DD8122B2AD8122B59D801A252F823F033
:101FCC004720000821200008332000087520000855
:101FDC007B2000087B2000087B2000087B20000869
:101FEC007B2000087B2000087B2000087B20000859
:101FFC007B2000087B2000087B2000087B20000849
:10200C007B200008292000083D200008794A9342D3
:10201C0013D02CE03B68DB683B6229E03B68DB6853
:10202C0004333B6224E03B68DB6808333B621FE00F
:10203C003B68DB680C333B621AE03B689B68002B07
:10204C0002D104233B6213E03B689B68012B05D152
:10205C0008233B627B68FA691A6109E008233B623A
:10206C007B68FA695A6103E000233B6200E000BF21
:10207C00BB69FF2B01D87B6801E07B6804337B6173
:10208C00BB69FF2B02D87B6A9B0002E07B6A083B92
:10209C009B003B617B691A680F213B6901FA03F3D2
:1020AC00DB431A40396A3B6901FA03F31A437B6933
:1020BC001A603B685B6803F08053002B00F0B18022
:1020CC004D4B9B694C4A43F0010393614A4B9B690E
:1020DC0003F00103BB60BB68484A7B6A9B08023370
:1020EC0052F82330FB607B6A03F003039B000F2242
:1020FC0002FA03F3DB43FA681340FB607B68404A47
:10210C00934213D07B683F4A93420DD07B683E4A82
:10211C00934207D07B683D4A934201D1032306E0EA
:10212C00042304E0022302E0012300E000237A6A86
:10213C0002F0030292009340FA681343FB602F49AC
:10214C007B6A9B080233FA6841F823203B685B6882
:10215C0003F48013002B06D02D4B9A682C49BB69D5
:10216C0013438B6006E02A4B9A68BB69DB43284912
:10217C0013408B603B685B6803F40013002B06D0A4
:10218C00234BDA682249BB691343CB6006E0204B32
:10219C00DA68BB69DB431E491340CB603B685B6864
:1021AC0003F40033002B06D0194B5A681849BB694D
:1021BC0013434B6006E0164B5A68BB69DB4314496A
:1021CC0013404B603B685B6803F48033002B21D0D9
:1021DC000F4B1A680E49BB6913430B6021E000BF1B
:1021EC0000003210000031100000221000002110FD
:1021FC0000001210000011100010024000000140FD
:10220C0000080140000C0140001001400014014086
:10221C00000401400B4B1A68BB69DB4309491340AE
:10222C000B607B6A01337B623B681A687B6A22FA1B
:10223C0003F3002B7FF48EAE00BF00BF2C37BD46DE
:10224C0080BC70470004014080B483B000AF78605C
:10225C000B467B8013467B707B78002B03D07A88EF
:10226C007B681A6103E07B881A047B681A6100BFE3
:10227C000C37BD4680BC704780B586B000AF786027
:10228C007B68002B01D1012372E27B681B6803F091
:10229C000103002B00F08780924B5B6803F00C036A
:1022AC00042B0CD08F4B5B6803F00C03082B12D162
:1022BC008C4B5B6803F48033B3F5803F0BD1894BB7
:1022CC001B6803F40033002B6CD07B685B68002B1D
:1022DC0068D101234CE27B685B68B3F5803F06D183
:1022EC00804B1B687F4A43F4803313602EE07B687D
:1022FC005B68002B0CD17B4B1B687A4A23F4803330
:10230C001360784B1B68774A23F4802313601DE01D
:10231C007B685B68B3F5A02F0CD1724B1B68714ABC
:10232C0043F4802313606F4B1B686E4A43F4803375
:10233C0013600BE06B4B1B686A4A23F48033136009
:10234C00684B1B68674A23F4802313607B685B68C7
:10235C00002B13D0FEF776FC386108E0FEF772FC18
:10236C0002463B69D31A642B01D9032300E25D4B6F
:10237C001B6803F40033002BF0D014E0FEF762FC72
:10238C00386108E0FEF75EFC02463B69D31A642B09
:10239C0001D90323ECE1534B1B6803F40033002BEE
:1023AC00F0D100E000BF7B681B6803F00203002B38
:1023BC0063D04C4B5B6803F00C03002B0BD0494BE8
:1023CC005B6803F00C03082B1CD1464B5B6803F4D1
:1023DC008033002B16D1434B1B6803F00203002BF8
:1023EC0005D07B681B69012B01D00123C0E13D4B5B
:1023FC001B6823F0F8027B685B69DB0039491343E7
:10240C000B603AE07B681B69002B20D0364B012215
:10241C001A60FEF717FC386108E0FEF713FC024661
:10242C003B69D31A022B01D90323A1E12D4B1B6865
:10243C0003F00203002BF0D02A4B1B6823F0F802A8
:10244C007B685B69DB00274913430B6015E0264B67
:10245C0000221A60FEF7F6FB386108E0FEF7F2FB8B
:10246C0002463B69D31A022B01D9032380E11D4B91
:10247C001B6803F00203002BF0D17B681B6803F090
:10248C000803002B3AD07B689B69002B19D0174BA3
:10249C0001221A60FEF7D6FB386108E0FEF7D2FB8A
:1024AC0002463B69D31A022B01D9032360E10D4B81
:1024BC005B6A03F00203002BF0D0012000F09CFAC1
:1024CC001CE00A4B00221A60FEF7BCFB38610FE0DF
:1024DC00FEF7B8FB02463B69D31A022B08D903233B
:1024EC0046E100BF0010024000004242800442421C
:1024FC00924B5B6A03F00203002BE9D17B681B68EB
:10250C0003F00403002B00F0A6800023FB758B4B1B
:10251C00DB6903F08053002B0DD1884BDB69874AB4
:10252C0043F08053D361854BDB6903F08053BB6070
:10253C00BB680123FB75824B1B6803F48073002B73
:10254C0018D17F4B1B687E4A43F480731360FEF7EF
:10255C0079FB386108E0FEF775FB02463B69D31A3C
:10256C00642B01D9032303E1754B1B6803F48073BF
:10257C00002BF0D07B68DB68012B06D16F4B1B6AFC
:10258C006E4A43F0010313622DE07B68DB68002B7D
:10259C000CD16A4B1B6A694A23F001031362674B27
:1025AC001B6A664A23F0040313621CE07B68DB6839
:1025BC00052B0CD1614B1B6A604A43F00403136278
:1025CC005E4B1B6A5D4A43F0010313620BE05B4BED
:1025DC001B6A5A4A23F001031362584B1B6A574A71
:1025EC0023F0040313627B68DB68002B15D0FEF725
:1025FC0029FB38610AE0FEF725FB02463B69D31A3A
:10260C0041F28832934201D90323B1E04B4B1B6A50
:10261C0003F00203002BEED014E0FEF713FB38613D
:10262C000AE0FEF70FFB02463B69D31A41F28832EF
:10263C00934201D903239BE0404B1B6A03F0020336
:10264C00002BEED1FB7D012B05D13C4BDB693B4ACA
:10265C0023F08053D3617B68DB69002B00F087800B
:10266C00364B5B6803F00C03082B61D07B68DB698D
:10267C00022B46D1334B00221A60FEF7E3FA386185
:10268C0008E0FEF7DFFA02463B69D31A022B01D9A8
:10269C0003236DE0294B1B6803F00073002BF0D172
:1026AC007B681B6AB3F5803F08D1244B5B6823F42D
:1026BC0000327B689B68214913434B601F4B5B685E
:1026CC0023F474127B68196A7B685B6A0B431B49A1
:1026DC0013434B601B4B01221A60FEF7B3FA3861AF
:1026EC0008E0FEF7AFFA02463B69D31A022B01D978
:1026FC0003233DE0114B1B6803F00073002BF0D05B
:10270C0035E0104B00221A60FEF79CFA386108E0A5
:10271C00FEF798FA02463B69D31A022B01D9032320
:10272C0026E0064B1B6803F00073002BF0D11EE073
:10273C007B68DB69012B07D1012319E000100240F3
:10274C0000700040600042420B4B5B68FB60FB6812
:10275C0003F480327B681B6A9A4206D1FB6803F44F
:10276C0070127B685B6A9A4201D0012300E000235F
:10277C0018461837BD4680BD0010024080B584B0A5
:10278C0000AF786039607B68002B01D10123D0E069
:10279C006A4B1B6803F007033A689A4210D9674BDF
:1027AC001B6823F0070265493B6813430B60634BBE
:1027BC001B6803F007033A689A4201D00123B8E082
:1027CC007B681B6803F00203002B20D07B681B681E
:1027DC0003F00403002B05D0594B5B68584A43F4B3
:1027EC00E06353607B681B6803F00803002B05D083
:1027FC00534B5B68524A43F460535360504B5B68D5
:10280C0023F0F0027B689B684D4913434B607B6857
:10281C001B6803F00103002B40D07B685B68012B25
:10282C0007D1474B1B6803F40033002B15D1012350
:10283C007FE07B685B68022B07D1414B1B6803F080
:10284C000073002B09D1012373E03D4B1B6803F08F
:10285C000203002B01D101236BE0394B5B6823F0A1
:10286C0003027B685B68364913434B60FEF7EAF959
:10287C00F8600AE0FEF7E6F90246FB68D31A41F26B
:10288C008832934201D9032353E02D4B5B6803F04C
:10289C000C027B685B689B009A42EBD1274B1B6850
:1028AC0003F007033A689A4210D2244B1B6823F0BA
:1028BC00070222493B6813430B60204B1B6803F053
:1028CC0007033A689A4201D0012332E07B681B6807
:1028DC0003F00403002B08D0194B5B6823F4E0626F
:1028EC007B68DB68164913434B607B681B6803F0FD
:1028FC000803002B09D0124B5B6823F460527B68F1
:10290C001B69DB000E4913434B6000F021F80246B3
:10291C000B4B5B681B0903F00F030A49CB5C22FAD3
:10292C0003F3094A1360094B1B681846FEF748F974
:10293C00002318461037BD4680BD00BF0020024062
:10294C0000100240083300080C000020100000208A
:10295C0080B487B000AF0023FB600023BB60002372
:10296C007B6100237B6000233B611E4B5B68FB603B
:10297C00FB6803F00C03042B02D0082B03D027E0D8
:10298C00194B3B6127E0FB689B0C03F00F03174AC4
:10299C00D35C7B60FB6803F48033002B10D0114BAD
:1029AC005B685B0C03F00103114AD35CBB607B6872
:1029BC000D4A03FB02F2BB68B2FBF3F37B6104E04C
:1029CC007B680C4A02FB03F37B617B693B6102E091
:1029DC00054B3B6100BF3B6918461C37BD4680BCAC
:1029EC00704700BF0010024000127A001833000834
:1029FC002833000800093D0080B485B000AF786032
:102A0C000A4B1B680A4AA2FB03235B0A7A6802FB87
:102A1C0003F3FB6000BFFB685A1EFA60002BF9D170
:102A2C0000BF00BF1437BD4680BC70470C000020AF
:102A3C00D34D621080B582B000AF78607B68002BFC
:102A4C0001D1012341E07B6893F83D30DBB2002BD0
:102A5C0006D17B68002283F83C207868FEF702F8E8
:102A6C007B68022283F83D207B681A687B680433FC
:102A7C001946104600F0A2FA7B68012283F8462022
:102A8C007B68012283F83E207B68012283F83F207B
:102A9C007B68012283F840207B68012283F8412067
:102AAC007B68012283F842207B68012283F8432053
:102ABC007B68012283F844207B68012283F845203F
:102ACC007B68012283F83D20002318460837BD4659
:102ADC0080BD000080B485B000AF78607B6893F84F
:102AEC003D30DBB2012B01D001233AE07B6802229E
:102AFC0083F83D207B681B68DA687B681B6842F0B2
:102B0C000102DA607B681B68184A93420ED07B681E
:102B1C001B68B3F1804F09D07B681B68144A934241
:102B2C0004D07B681B68134A934211D17B681B68E5
:102B3C009B6803F00703FB60FB68062B10D07B68D7
:102B4C001B681A687B681B6842F001021A6007E078
:102B5C007B681B681A687B681B6842F001021A606C
:102B6C00002318461437BD4680BC7047002C01402A
:102B7C00000400400008004080B483B000AF7860CF
:102B8C007B681B68DA687B681B6822F00102DA60DC
:102B9C007B681B681A6A41F211131340002B0FD18A
:102BAC007B681B681A6A40F244431340002B07D120
:102BBC007B681B681A687B681B6822F001021A602C
:102BCC007B68012283F83D20002318460C37BD4654
:102BDC0080BC704780B582B000AF78607B681B68A2
:102BEC001B6903F00203022B22D17B681B68DB6894
:102BFC0003F00203022B1BD17B681B686FF00202EF
:102C0C001A617B6801221A777B681B689B6903F049
:102C1C000303002B03D0786800F0B4F905E0786862
:102C2C0000F0A7F9786800F0B6F97B6800221A77F3
:102C3C007B681B681B6903F00403042B22D17B689F
:102C4C001B68DB6803F00403042B1BD17B681B6837
:102C5C006FF004021A617B6802221A777B681B688A
:102C6C009B6903F44073002B03D0786800F08AF959
:102C7C0005E0786800F07DF9786800F08CF97B68E5
:102C8C0000221A777B681B681B6903F00803082B6A
:102C9C0022D17B681B68DB6803F00803082B1BD16F
:102CAC007B681B686FF008021A617B6804221A7734
:102CBC007B681B68DB6903F00303002B03D0786887
:102CCC0000F060F905E0786800F053F9786800F0DE
:102CDC0062F97B6800221A777B681B681B6903F01A
:102CEC001003102B22D17B681B68DB6803F01003E8
:102CFC00102B1BD17B681B686FF010021A617B686C
:102D0C0008221A777B681B68DB6903F44073002B7D
:102D1C0003D0786800F036F905E0786800F029F9FE
:102D2C00786800F038F97B6800221A777B681B689A
:102D3C001B6903F00103012B0ED17B681B68DB6858
:102D4C0003F00103012B07D17B681B686FF00102B4
:102D5C001A617868FDF752FB7B681B681B6903F0EE
:102D6C008003802B0ED17B681B68DB6803F080032B
:102D7C00802B07D17B681B686FF080021A61786822
:102D8C0000F07BFA7B681B681B6903F04003402B47
:102D9C000ED17B681B68DB6803F04003402B07D126
:102DAC007B681B686FF040021A61786800F0FCF8D1
:102DBC007B681B681B6903F02003202B0ED17B68FA
:102DCC001B68DB6803F02003202B07D17B681B6892
:102DDC006FF020021A61786800F046FA00BF0837DD
:102DEC00BD4680BD80B584B000AF786039600023EB
:102DFC00FB737B6893F83C30012B01D10223B4E0C8
:102E0C007B68012283F83C207B68022283F83D20FA
:102E1C007B681B689B68BB60BB6823F07703BB6057
:102E2C00BB6823F47F43BB607B681B68BA689A60FD
:102E3C003B681B68B3F5005F3ED0B3F5005F00F252
:102E4C008780B3F5805F00F08680B3F5805F7FD814
:102E5C00702B1AD0702B7BD8602B50D0602B77D86E
:102E6C00502B3CD0502B73D8402B58D0402B6FD8C4
:102E7C00302B64D0302B6BD8202B60D0202B67D814
:102E8C00002B5CD0102B5AD062E07B6818683B6832
:102E9C0099683B685A683B68DB6800F068F97B68A6
:102EAC001B689B68BB60BB6843F07703BB607B68A7
:102EBC001B68BA689A604FE07B6818683B68996831
:102ECC003B685A683B68DB6800F051F97B681B680B
:102EDC009A687B681B6842F480429A603CE07B688D
:102EEC0018683B6859683B68DB681A4600F0C8F8FC
:102EFC007B681B685021184600F01FF92CE07B689A
:102F0C0018683B6859683B68DB681A4600F0E6F8BD
:102F1C007B681B686021184600F00FF91CE07B6889
:102F2C0018683B6859683B68DB681A4600F0A8F8DB
:102F3C007B681B684021184600F0FFF80CE07B68AA
:102F4C001A683B681B681946104600F0F6F803E057
:102F5C000123FB7300E000BF7B68012283F83D2056
:102F6C007B68002283F83C20FB7B18461037BD465B
:102F7C0080BD80B483B000AF786000BF0C37BD4615
:102F8C0080BC704780B483B000AF786000BF0C3752
:102F9C00BD4680BC704780B483B000AF786000BF82
:102FAC000C37BD4680BC704780B483B000AF7860EE
:102FBC0000BF0C37BD4680BC7047000080B485B0A4
:102FCC0000AF786039607B681B68FB607B68294ABE
:102FDC0093420BD07B68B3F1804F07D07B68264AB5
:102FEC00934203D07B68254A934208D1FB6823F0B7
:102FFC007003FB603B685B68FA681343FB607B689B
:10300C001C4A93420BD07B68B3F1804F07D07B688E
:10301C00194A934203D07B68184A934208D1FB6843
:10302C0023F44073FB603B68DB68FA681343FB6076
:10303C00FB6823F080023B685B691343FB607B6891
:10304C00FA681A603B689A687B68DA623B681A68AF
:10305C007B689A627B68074A934203D13B681A6982
:10306C007B681A637B6801225A6100BF1437BD4626
:10307C0080BC7047002C0140000400400008004058
:10308C0080B487B000AFF860B9607A60FB681B6AE7
:10309C007B61FB681B6A23F00102FB681A62FB6808
:1030AC009B693B613B6923F0F0033B617B681B012F
:1030BC003A6913433B617B6923F00A037B617A69AC
:1030CC00BB6813437B61FB683A699A61FB687A6958
:1030DC001A6200BF1C37BD4680BC704780B487B0F5
:1030EC0000AFF860B9607A60FB681B6A7B61FB68B3
:1030FC001B6A23F01002FB681A62FB689B693B6138
:10310C003B6923F470433B617B681B033A691343AF
:10311C003B617B6923F0A0037B61BB681B017A696F
:10312C0013437B61FB683A699A61FB687A691A629E
:10313C0000BF1C37BD4680BC704780B485B000AF63
:10314C00786039607B689B68FB60FB6823F07003D8
:10315C00FB603A68FB68134343F00703FB607B6832
:10316C00FA689A6000BF1437BD4680BC704780B4C3
:10317C0087B000AFF860B9607A603B60FB689B6811
:10318C007B617B6923F47F437B613B681A027B681C
:10319C001A43BB6813437A6913437B61FB687A69F2
:1031AC009A6000BF1C37BD4680BC704780B485B0A8
:1031BC0000AF786039607B6893F83C30012B01D10B
:1031CC00022346E07B68012283F83C207B680222C4
:1031DC0083F83D207B681B685B68FB607B681B6821
:1031EC009B68BB60FB6823F07003FB603B681B684B
:1031FC00FA681343FB607B681B68FA685A607B684B
:10320C001B68164A93420ED07B681B68B3F1804F43
:10321C0009D07B681B68124A934204D07B681B68F8
:10322C00104A93420CD1BB6823F08003BB603B680F
:10323C005B68BA681343BB607B681B68BA689A60AA
:10324C007B68012283F83D207B68002283F83C20B8
:10325C00002318461437BD4680BC7047002C014033
:10326C00000400400008004080B483B000AF7860D8
:10327C0000BF0C37BD4680BC704780B483B000AF34
:10328C00786000BF0C37BD4680BC704703460244D3
:10329C00934200D1704703F8011BF9E770B5002683
:1032AC000C4D0D4C641BA410A64209D100F01AF869
:1032BC0000260A4D0A4C641BA410A64205D170BD11
:1032CC0055F8043B98470136EEE755F8043B984710
:1032DC000136F2E72C3300082C3300082C3300089D
:1032EC0030330008F8B500BFF8BC08BC9E467047E8
:0C32FC00F8B500BFF8BC08BC9E46704747
:10330800000000000000000001020304060708098D
:1033180002030405060708090A0B0C0D0E0F10100E
:04332800010200009E
:04332C003101000863
:043330000D01000883
:103334000100000000000000010000000024F4006F
:08334400100000000100000070
:0400000508000B558F
:00000001FF
